{
  "_format": "hh-sol-artifact-1",
  "contractName": "TokenFactory",
  "sourceName": "contracts/TokenFactory.sol",
  "abi": [
    {
      "inputs": [
        {
          "internalType": "string",
          "name": "name",
          "type": "string"
        },
        {
          "internalType": "string",
          "name": "symbol",
          "type": "string"
        },
        {
          "internalType": "uint8",
          "name": "decimals",
          "type": "uint8"
        },
        {
          "internalType": "uint256",
          "name": "initialSupply",
          "type": "uint256"
        }
      ],
      "name": "createToken",
      "outputs": [
        {
          "internalType": "address",
          "name": "",
          "type": "address"
        }
      ],
      "stateMutability": "nonpayable",
      "type": "function"
    }
  ],
  "bytecode": "0x608060405234801561001057600080fd5b50611e3f806100206000396000f3fe60806040523480156200001157600080fd5b50600436106200002e5760003560e01c8063210f5dda1462000033575b600080fd5b6200005160048036038101906200004b9190620002b8565b62000069565b604051620000609190620003ad565b60405180910390f35b60008085858585336040516200007f90620000bb565b6200008f95949392919062000475565b604051809103906000f080158015620000ac573d6000803e3d6000fd5b50905080915050949350505050565b61192980620004e183390190565b6000604051905090565b600080fd5b600080fd5b600080fd5b600080fd5b6000601f19601f8301169050919050565b7f4e487b7100000000000000000000000000000000000000000000000000000000600052604160045260246000fd5b6200013282620000e7565b810181811067ffffffffffffffff82111715620001545762000153620000f8565b5b80604052505050565b600062000169620000c9565b905062000177828262000127565b919050565b600067ffffffffffffffff8211156200019a5762000199620000f8565b5b620001a582620000e7565b9050602081019050919050565b82818337600083830152505050565b6000620001d8620001d2846200017c565b6200015d565b905082815260208101848484011115620001f757620001f6620000e2565b5b62000204848285620001b2565b509392505050565b600082601f830112620002245762000223620000dd565b5b813562000236848260208601620001c1565b91505092915050565b600060ff82169050919050565b62000257816200023f565b81146200026357600080fd5b50565b60008135905062000277816200024c565b92915050565b6000819050919050565b62000292816200027d565b81146200029e57600080fd5b50565b600081359050620002b28162000287565b92915050565b60008060008060808587031215620002d557620002d4620000d3565b5b600085013567ffffffffffffffff811115620002f657620002f5620000d8565b5b62000304878288016200020c565b945050602085013567ffffffffffffffff811115620003285762000327620000d8565b5b62000336878288016200020c565b9350506040620003498782880162000266565b92505060606200035c87828801620002a1565b91505092959194509250565b600073ffffffffffffffffffffffffffffffffffffffff82169050919050565b6000620003958262000368565b9050919050565b620003a78162000388565b82525050565b6000602082019050620003c460008301846200039c565b92915050565b600081519050919050565b600082825260208201905092915050565b60005b8381101562000406578082015181840152602081019050620003e9565b60008484015250505050565b60006200041f82620003ca565b6200042b8185620003d5565b93506200043d818560208601620003e6565b6200044881620000e7565b840191505092915050565b6200045e816200023f565b82525050565b6200046f816200027d565b82525050565b600060a082019050818103600083015262000491818862000412565b90508181036020830152620004a7818762000412565b9050620004b8604083018662000453565b620004c7606083018562000464565b620004d660808301846200039c565b969550505050505056fe60806040523480156200001157600080fd5b5060405162001929380380620019298339818101604052810190620000379190620005c5565b848481600390816200004a9190620008cc565b5080600490816200005c9190620008cc565b50505082600560006101000a81548160ff021916908360ff1602179055506200008c81836200009760201b60201c565b505050505062000ab6565b600073ffffffffffffffffffffffffffffffffffffffff168273ffffffffffffffffffffffffffffffffffffffff16036200010c5760006040517fec442f05000000000000000000000000000000000000000000000000000000008152600401620001039190620009c4565b60405180910390fd5b62000120600083836200012460201b60201c565b5050565b600073ffffffffffffffffffffffffffffffffffffffff168373ffffffffffffffffffffffffffffffffffffffff16036200017a5780600260008282546200016d919062000a10565b9250508190555062000250565b60008060008573ffffffffffffffffffffffffffffffffffffffff1673ffffffffffffffffffffffffffffffffffffffff1681526020019081526020016000205490508181101562000209578381836040517fe450d38c000000000000000000000000000000000000000000000000000000008152600401620002009392919062000a5c565b60405180910390fd5b8181036000808673ffffffffffffffffffffffffffffffffffffffff1673ffffffffffffffffffffffffffffffffffffffff16815260200190815260200160002081905550505b600073ffffffffffffffffffffffffffffffffffffffff168273ffffffffffffffffffffffffffffffffffffffff16036200029b5780600260008282540392505081905550620002e8565b806000808473ffffffffffffffffffffffffffffffffffffffff1673ffffffffffffffffffffffffffffffffffffffff168152602001908152602001600020600082825401925050819055505b8173ffffffffffffffffffffffffffffffffffffffff168373ffffffffffffffffffffffffffffffffffffffff167fddf252ad1be2c89b69c2b068fc378daa952ba7f163c4a11628f55a4df523b3ef8360405162000347919062000a99565b60405180910390a3505050565b6000604051905090565b600080fd5b600080fd5b600080fd5b600080fd5b6000601f19601f8301169050919050565b7f4e487b7100000000000000000000000000000000000000000000000000000000600052604160045260246000fd5b620003bd8262000372565b810181811067ffffffffffffffff82111715620003df57620003de62000383565b5b80604052505050565b6000620003f462000354565b9050620004028282620003b2565b919050565b600067ffffffffffffffff82111562000425576200042462000383565b5b620004308262000372565b9050602081019050919050565b60005b838110156200045d57808201518184015260208101905062000440565b60008484015250505050565b6000620004806200047a8462000407565b620003e8565b9050828152602081018484840111156200049f576200049e6200036d565b5b620004ac8482856200043d565b509392505050565b600082601f830112620004cc57620004cb62000368565b5b8151620004de84826020860162000469565b91505092915050565b600060ff82169050919050565b620004ff81620004e7565b81146200050b57600080fd5b50565b6000815190506200051f81620004f4565b92915050565b6000819050919050565b6200053a8162000525565b81146200054657600080fd5b50565b6000815190506200055a816200052f565b92915050565b600073ffffffffffffffffffffffffffffffffffffffff82169050919050565b60006200058d8262000560565b9050919050565b6200059f8162000580565b8114620005ab57600080fd5b50565b600081519050620005bf8162000594565b92915050565b600080600080600060a08688031215620005e457620005e36200035e565b5b600086015167ffffffffffffffff81111562000605576200060462000363565b5b6200061388828901620004b4565b955050602086015167ffffffffffffffff81111562000637576200063662000363565b5b6200064588828901620004b4565b945050604062000658888289016200050e565b93505060606200066b8882890162000549565b92505060806200067e88828901620005ae565b9150509295509295909350565b600081519050919050565b7f4e487b7100000000000000000000000000000000000000000000000000000000600052602260045260246000fd5b60006002820490506001821680620006de57607f821691505b602082108103620006f457620006f362000696565b5b50919050565b60008190508160005260206000209050919050565b60006020601f8301049050919050565b600082821b905092915050565b6000600883026200075e7fffffffffffffffffffffffffffffffffffffffffffffffffffffffffffffffff826200071f565b6200076a86836200071f565b95508019841693508086168417925050509392505050565b6000819050919050565b6000620007ad620007a7620007a18462000525565b62000782565b62000525565b9050919050565b6000819050919050565b620007c9836200078c565b620007e1620007d882620007b4565b8484546200072c565b825550505050565b600090565b620007f8620007e9565b62000805818484620007be565b505050565b5b818110156200082d5762000821600082620007ee565b6001810190506200080b565b5050565b601f8211156200087c576200084681620006fa565b62000851846200070f565b8101602085101562000861578190505b6200087962000870856200070f565b8301826200080a565b50505b505050565b600082821c905092915050565b6000620008a16000198460080262000881565b1980831691505092915050565b6000620008bc83836200088e565b9150826002028217905092915050565b620008d7826200068b565b67ffffffffffffffff811115620008f357620008f262000383565b5b620008ff8254620006c5565b6200090c82828562000831565b600060209050601f8311600181146200094457600084156200092f578287015190505b6200093b8582620008ae565b865550620009ab565b601f1984166200095486620006fa565b60005b828110156200097e5784890151825560018201915060208501945060208101905062000957565b868310156200099e57848901516200099a601f8916826200088e565b8355505b6001600288020188555050505b505050505050565b620009be8162000580565b82525050565b6000602082019050620009db6000830184620009b3565b92915050565b7f4e487b7100000000000000000000000000000000000000000000000000000000600052601160045260246000fd5b600062000a1d8262000525565b915062000a2a8362000525565b925082820190508082111562000a455762000a44620009e1565b5b92915050565b62000a568162000525565b82525050565b600060608201905062000a736000830186620009b3565b62000a82602083018562000a4b565b62000a91604083018462000a4b565b949350505050565b600060208201905062000ab0600083018462000a4b565b92915050565b610e638062000ac66000396000f3fe608060405234801561001057600080fd5b50600436106100935760003560e01c8063313ce56711610066578063313ce5671461013457806370a082311461015257806395d89b4114610182578063a9059cbb146101a0578063dd62ed3e146101d057610093565b806306fdde0314610098578063095ea7b3146100b657806318160ddd146100e657806323b872dd14610104575b600080fd5b6100a0610200565b6040516100ad9190610ab7565b60405180910390f35b6100d060048036038101906100cb9190610b72565b610292565b6040516100dd9190610bcd565b60405180910390f35b6100ee6102b5565b6040516100fb9190610bf7565b60405180910390f35b61011e60048036038101906101199190610c12565b6102bf565b60405161012b9190610bcd565b60405180910390f35b61013c6102ee565b6040516101499190610c81565b60405180910390f35b61016c60048036038101906101679190610c9c565b610305565b6040516101799190610bf7565b60405180910390f35b61018a61034d565b6040516101979190610ab7565b60405180910390f35b6101ba60048036038101906101b59190610b72565b6103df565b6040516101c79190610bcd565b60405180910390f35b6101ea60048036038101906101e59190610cc9565b610402565b6040516101f79190610bf7565b60405180910390f35b60606003805461020f90610d38565b80601f016020809104026020016040519081016040528092919081815260200182805461023b90610d38565b80156102885780601f1061025d57610100808354040283529160200191610288565b820191906000526020600020905b81548152906001019060200180831161026b57829003601f168201915b5050505050905090565b60008061029d610489565b90506102aa818585610491565b600191505092915050565b6000600254905090565b6000806102ca610489565b90506102d78582856104a3565b6102e2858585610537565b60019150509392505050565b6000600560009054906101000a900460ff16905090565b60008060008373ffffffffffffffffffffffffffffffffffffffff1673ffffffffffffffffffffffffffffffffffffffff168152602001908152602001600020549050919050565b60606004805461035c90610d38565b80601f016020809104026020016040519081016040528092919081815260200182805461038890610d38565b80156103d55780601f106103aa576101008083540402835291602001916103d5565b820191906000526020600020905b8154815290600101906020018083116103b857829003601f168201915b5050505050905090565b6000806103ea610489565b90506103f7818585610537565b600191505092915050565b6000600160008473ffffffffffffffffffffffffffffffffffffffff1673ffffffffffffffffffffffffffffffffffffffff16815260200190815260200160002060008373ffffffffffffffffffffffffffffffffffffffff1673ffffffffffffffffffffffffffffffffffffffff16815260200190815260200160002054905092915050565b600033905090565b61049e838383600161062b565b505050565b60006104af8484610402565b90507fffffffffffffffffffffffffffffffffffffffffffffffffffffffffffffffff81146105315781811015610521578281836040517ffb8f41b200000000000000000000000000000000000000000000000000000000815260040161051893929190610d78565b60405180910390fd5b6105308484848403600061062b565b5b50505050565b600073ffffffffffffffffffffffffffffffffffffffff168373ffffffffffffffffffffffffffffffffffffffff16036105a95760006040517f96c6fd1e0000000000000000000000000000000000000000000000000000000081526004016105a09190610daf565b60405180910390fd5b600073ffffffffffffffffffffffffffffffffffffffff168273ffffffffffffffffffffffffffffffffffffffff160361061b5760006040517fec442f050000000000000000000000000000000000000000000000000000000081526004016106129190610daf565b60405180910390fd5b610626838383610802565b505050565b600073ffffffffffffffffffffffffffffffffffffffff168473ffffffffffffffffffffffffffffffffffffffff160361069d5760006040517fe602df050000000000000000000000000000000000000000000000000000000081526004016106949190610daf565b60405180910390fd5b600073ffffffffffffffffffffffffffffffffffffffff168373ffffffffffffffffffffffffffffffffffffffff160361070f5760006040517f94280d620000000000000000000000000000000000000000000000000000000081526004016107069190610daf565b60405180910390fd5b81600160008673ffffffffffffffffffffffffffffffffffffffff1673ffffffffffffffffffffffffffffffffffffffff16815260200190815260200160002060008573ffffffffffffffffffffffffffffffffffffffff1673ffffffffffffffffffffffffffffffffffffffff1681526020019081526020016000208190555080156107fc578273ffffffffffffffffffffffffffffffffffffffff168473ffffffffffffffffffffffffffffffffffffffff167f8c5be1e5ebec7d5bd14f71427d1e84f3dd0314c0f7b2291e5b200ac8c7c3b925846040516107f39190610bf7565b60405180910390a35b50505050565b600073ffffffffffffffffffffffffffffffffffffffff168373ffffffffffffffffffffffffffffffffffffffff16036108545780600260008282546108489190610df9565b92505081905550610927565b60008060008573ffffffffffffffffffffffffffffffffffffffff1673ffffffffffffffffffffffffffffffffffffffff168152602001908152602001600020549050818110156108e0578381836040517fe450d38c0000000000000000000000000000000000000000000000000000000081526004016108d793929190610d78565b60405180910390fd5b8181036000808673ffffffffffffffffffffffffffffffffffffffff1673ffffffffffffffffffffffffffffffffffffffff16815260200190815260200160002081905550505b600073ffffffffffffffffffffffffffffffffffffffff168273ffffffffffffffffffffffffffffffffffffffff160361097057806002600082825403925050819055506109bd565b806000808473ffffffffffffffffffffffffffffffffffffffff1673ffffffffffffffffffffffffffffffffffffffff168152602001908152602001600020600082825401925050819055505b8173ffffffffffffffffffffffffffffffffffffffff168373ffffffffffffffffffffffffffffffffffffffff167fddf252ad1be2c89b69c2b068fc378daa952ba7f163c4a11628f55a4df523b3ef83604051610a1a9190610bf7565b60405180910390a3505050565b600081519050919050565b600082825260208201905092915050565b60005b83811015610a61578082015181840152602081019050610a46565b60008484015250505050565b6000601f19601f8301169050919050565b6000610a8982610a27565b610a938185610a32565b9350610aa3818560208601610a43565b610aac81610a6d565b840191505092915050565b60006020820190508181036000830152610ad18184610a7e565b905092915050565b600080fd5b600073ffffffffffffffffffffffffffffffffffffffff82169050919050565b6000610b0982610ade565b9050919050565b610b1981610afe565b8114610b2457600080fd5b50565b600081359050610b3681610b10565b92915050565b6000819050919050565b610b4f81610b3c565b8114610b5a57600080fd5b50565b600081359050610b6c81610b46565b92915050565b60008060408385031215610b8957610b88610ad9565b5b6000610b9785828601610b27565b9250506020610ba885828601610b5d565b9150509250929050565b60008115159050919050565b610bc781610bb2565b82525050565b6000602082019050610be26000830184610bbe565b92915050565b610bf181610b3c565b82525050565b6000602082019050610c0c6000830184610be8565b92915050565b600080600060608486031215610c2b57610c2a610ad9565b5b6000610c3986828701610b27565b9350506020610c4a86828701610b27565b9250506040610c5b86828701610b5d565b9150509250925092565b600060ff82169050919050565b610c7b81610c65565b82525050565b6000602082019050610c966000830184610c72565b92915050565b600060208284031215610cb257610cb1610ad9565b5b6000610cc084828501610b27565b91505092915050565b60008060408385031215610ce057610cdf610ad9565b5b6000610cee85828601610b27565b9250506020610cff85828601610b27565b9150509250929050565b7f4e487b7100000000000000000000000000000000000000000000000000000000600052602260045260246000fd5b60006002820490506001821680610d5057607f821691505b602082108103610d6357610d62610d09565b5b50919050565b610d7281610afe565b82525050565b6000606082019050610d8d6000830186610d69565b610d9a6020830185610be8565b610da76040830184610be8565b949350505050565b6000602082019050610dc46000830184610d69565b92915050565b7f4e487b7100000000000000000000000000000000000000000000000000000000600052601160045260246000fd5b6000610e0482610b3c565b9150610e0f83610b3c565b9250828201905080821115610e2757610e26610dca565b5b9291505056fea264697066735822122090492acfbd558be451e0838693202879a1a53bcda0720937a2879b3c64a00dd164736f6c63430008140033a26469706673582212200f6727d660d6e8992697b8d7406e209bf97920fd9391e37b8e79ce2f257a71ca64736f6c63430008140033",
  "linkReferences": {},
  "deployedLinkReferences": {}
}